:10F80000314080021542200175F335D0085A3F403F
:10F8100000000F930724824520012F839F4F92F809
:10F820000002F9233F4004000F9306248245200183
:10F830001F83CF430002FA23B240805A2001F243D3
:10F840002200D24321003D40A861F2E321000F4392
:10F850000E4D1E83FE231F533F900A00F923F53FF0
:10F8600032D0F000FD3F304090F8824302020C3C61
:10F8700082430002033C034392530002B290F4011E
:10F880000002F92392530202829F0202F12B3041BF
:02F89000001363
:10FFE00066F866F866F866F866F866F866F866F821
:10FFF00066F866F866F866F866F866F866F800F877
:040000030000F80001
:00000001FF
